:100000000C94340018950000189500001895000015
:10001000189500001895000018950000189500002C
:10002000189500001895000018950000189500001C
:10003000189500001895000018950000189500000C
:1000400018950000189500001895000018950000FC
:1000500018950000189500001895000018950000EC
:1000600018950000189500008FEF8DBFCCE9ECEEDD
:100070004E2E84E08EBFD4E0F3E05F2EA89584B7C7
:10008000082E877F84BF88E1992780936000909332
:100090006000EEEFF3E0A0E0B1E088278D933197A8
:1000A000E9F780E48093C40080E08093C50088E194
:1000B0008093C10066240C945B00F894FFCF3197C5
:1000C000F1F70895689462F80895E89462F8089545
:00000001FF
