:100000000C9434000C94840418950000189500009A
:10001000189500001895000018950000189500002C
:10002000189500001895000018950000189500001C
:10003000189500001895000018950000189500000C
:100040000C941F04189500001895000018950000E6
:1000500018950000189500001895000018950000EC
:1000600018950000189500008FEF8DBFCCE9ECEEDD
:100070004E2E84E08EBFD4E0F3E05F2EA89584B7C7
:10008000082E877F84BF88E1992780936000909332
:100090006000EEEFF3E0A0E0B1E088278D933197A8
:1000A000E9F780E48093C40080E08093C50088E194
:1000B0008093C100662470EF7AB97FE074B977E06D
:1000C00077B95A9A439A449A459A83E085BD80E06D
:1000D00084BD7894E89A809169008C7F82608093D7
:1000E000690080E090E0A1E1B1E08D939C93709174
:1000F0002E01706870932E0170912E017F7B70939A
:100100002E0180E090E0AFE2B1E08D939C9388EE09
:1001100093E0A1E3B1E08D939C9380E090E0A3E3B2
:10012000B1E08D939C9380E58093350184EF91E05D
:10013000A6E3B1E08D939C9380E0809338010E9408
:10014000CB000E94FC00E6EDFBE00E941E05A4ED42
:10015000B3E0E3E1F1E00E9488050E9416050E94E9
:10016000250500911301003011F00C94BA00000035
:100170000C94C7000E944C010E947101AEE2B1E0F4
:100180008C9187FB16F40C94C7000E9416020C9405
:10019000B100F894FFCF8FE38093010186E0809354
:1001A00002018BE5809303018FE48093040186E6CE
:1001B000809305018DE6809306018DE7809307010A
:1001C00087E2809308018FE7809309018FE680938F
:1001D0000A0187E780930B018CE780930C0189E388
:1001E00080930D018EE580930E0189E780930F01C6
:1001F00081E7809310010895E8EEFBE00E941E0560
:100200000E942505E0E1FCE00E941E050E942505F4
:10021000E4E1FCE00E941E050E942505ECE1FCE003
:100220000E941E050E9425050E94A203A4E1B1E0E0
:10023000E0E1FCE00E94D70511F00C94270180E07A
:10024000809313014098419842980C944B01A4E18B
:10025000B1E0E4E1FCE00E94D70511F00C94350117
:1002600081E0809313010C944B01A4E1B1E0ECE137
:10027000FCE00E94D70511F00C94430182E08093CA
:1002800013010C944B01E2E2FCE00E941E050E9467
:1002900025050E94FC000895A6E2B0E08C9183FB46
:1002A00080F9809580FBA8E2B0E08C9180F98C9376
:1002B000A6E2B0E08C9184FB80F9809580FBA8E2F7
:1002C000B0E08C9181F98C93A6E2B0E08C9185FB33
:1002D00080F9809580FBA8E2B0E08C9182F98C9344
:1002E000089570912E01706870932E01A6E2B0E01F
:1002F0000C9103FB81E00EF080E08F93A8E3B1E066
:100300000C9101FB81E00EF480E09F91892388230A
:1003100011F40C94900170912E017F7770932E014F
:10032000A6E2B0E00C9104FB81E00EF080E08F9338
:10033000A8E3B1E00C9102FB81E00EF480E09F9114
:100340008923882311F40C94AA0170912E017F77E0
:1003500070932E01A6E2B0E00C9105FB81E00EF057
:1003600080E08F93A8E3B1E00C9103FB81E00EF4F1
:1003700080E09F918923882311F40C94C40170912B
:100380002E017F7770932E01A6E2B0E00C9103FB63
:1003900081E00EF480E08F93A8E3B1E00C9101FBC3
:1003A00081E00EF080E09F918923882311F40C9462
:1003B000DF01E894A8E3B1E08C9181F98C93A6E287
:1003C000B0E00C9104FB81E00EF480E08F93A8E391
:1003D000B1E00C9102FB81E00EF080E09F91892357
:1003E000882311F40C94FA01E894A8E3B1E08C910D
:1003F00082F98C93A6E2B0E00C9105FB81E00EF44B
:1004000080E08F93A8E3B1E00C9103FB81E00EF054
:1004100080E09F918923882311F40C941502E894BD
:10042000A8E3B1E08C9183F98C93089580E58093E3
:10043000350188EE93E0A6E3B1E08D939C9380E3D1
:1004400095E7AFE2B1E08D939C9388EE93E0A1E352
:10045000B1E08D939C9380E090E0A3E3B1E08D93B5
:100460009C93409A419A429A80E395E7A1E1B1E0DA
:100470008D939C93A1E1B1E00D911C91043650E065
:10048000150780E014F009F081E08F93AEE2B1E04F
:100490008C9186FB81E00EF480E09F918923882374
:1004A00011F40C94190381E086B982E086B984E0E6
:1004B00086B9A1E1B1E00D911C9100325EE415070F
:1004C0001CF011F00C9466020C946E0283E090E034
:1004D000A3E3B1E08D939C930C948F02A1E1B1E072
:1004E0000D911C91003157E215071CF011F00C948E
:1004F0007B020C94830282E090E0A3E3B1E08D9351
:100500009C930C948F02A1E1B1E00D911C9148EEF7
:1005100053E00E94CE04A3E3B1E04D935C933FB659
:10052000F894A3E3B1E08D919C91D2018D939C93BB
:1005300082E00E9459050E94F203229682E00E9406
:100540004A05AFE2B1E04D915C91A1E1B1E00D91BE
:100550001C91041715071CF011F00C9407030E945E
:100560005503A1E1B1E00D911C91A6E3B1E04D91DD
:100570005C91041B150BA1E1B1E00D931C93A1E16B
:10058000B1E00D911C91A1E3B1E04D915C91041B90
:10059000150BAFE2B1E00D931C93A1E3B1E00D9117
:1005A0001C9148E250E0041B150BA1E3B1E00D9350
:1005B0001C93A6E3B1E00D911C914EE150E0041BA9
:1005C000150BA6E3B1E00D931C93A6E3B1E00D91EA
:1005D0001C91043650E015071CF011F00C94F60243
:1005E00084E690E0A6E3B1E08D939C93AFE2B1E0A6
:1005F0000D911C91003050E015071CF011F00C9487
:10060000070380E090E0AFE2B1E08D939C9381E03E
:1006100090E00E943805A1E1B1E00D911C9141E00C
:1006200050E0041B150BA1E1B1E00D931C930C9459
:100630003A023FB6F8948FEF9FEFD2018D939C93CF
:1006400082E00E9459050E94F203229682E00E94F5
:100650004A05AEE2B1E08C9186FB16F00C94520391
:10066000339B0C9439036894A8E3B1E08C9181F931
:100670008C93349B0C9442036894A8E3B1E08C9172
:1006800082F98C93359B0C944B036894A8E3B1E0FA
:100690008C9183F98C9370912E017F7B70932E0146
:1006A0000C9454030E946903089580E580933501FA
:1006B00070916E00716070936E00A6E3B1E08D9151
:1006C0009C910E94380570916E007E7F70936E0041
:1006D000089570916E00716070936E0080E5809354
:1006E000350100913501063918F011F00C9484039E
:1006F00085E090E00E943805A5E3B1E08C918F5F22
:100700008C9310F40C9471038CED95E00E943805E5
:1007100086E9809335014091350100E5041718F012
:1007200011F00C949F038EE190E00E9438058091B7
:10073000350181508093350110F00C948B030C949B
:100740006E0308958AE10E94530581E00E945305DB
:1007500081E00E945305AC81BD8188278C9380E0A5
:10076000AA81BB818C9381E0A881B9818C93A881F7
:10077000B9810C91013011F00C94DC030E940F053B
:10078000AA81BB818C93AA81BB810C910D3011F0A1
:100790000C94D00380E0A881B9818C930C94DA0387
:1007A000AA81BB818C91AC81BD810E9408058D938B
:1007B00088278C930C94B703E6E3FCE00E941E05A7
:1007C000AC81BD810E9418050E942505EC81FD8148
:1007D000A4E1B1E00E94D2058CE1481A80E0580AF9
:1007E000269608953FBEA881B9810D911C910030D5
:1007F00050E015070CF402C00C94050470E07BB9BE
:100800005A9A70E075B90C941E04A881B981AD9014
:10081000BD90A1E0B1E0AA0DBB1D0C9140EF0423F7
:100820000BB95A9AA881B981AD90BD90A1E0B1E011
:10083000AA0DBB1D0C914FE0042305B908950F923A
:100840001F922F923F924F925F927F92AF92BF92F0
:100850000F931F932F933F934F935F936F937F93C8
:100860008F939F93AF93BF93CF93DF93EF93FF93B8
:100870008FB78F9306B549E0040FA0E0B1E00C9369
:100880000091350140910001040F06BD0091130154
:10089000013011F00C94500480E889B90C9468047C
:1008A00000911301023011F00C946804EEE3FCE0B7
:1008B0000E941E05A4EDB3E0E5E3F1E00E94880587
:1008C0000E941605E8E4FCE00E941E050E94250532
:1008D0008F918FBFFF91EF91DF91CF91BF91AF913A
:1008E0009F918F917F916F915F914F913F912F9148
:1008F0001F910F91BF90AF907F905F904F903F906E
:100900002F901F900F9018950F921F922F923F9249
:100910004F925F927F92AF92BF920F931F932F934C
:100920003F934F935F936F937F938F939F93AF9377
:10093000BF93CF93DF93EF93FF938FB78F93AEE285
:10094000B1E08C9187FB16F40C94AD0470912E01EC
:10095000706470932E010C94AF040E94FC008F9180
:100960008FBFFF91EF91DF91CF91BF91AF919F9199
:100970008F917F916F915F914F913F912F911F9137
:100980000F91BF90AF907F905F904F903F902F90CE
:100990001F900F90189500FC10D0089503D01ED022
:1009A00001F8F9CF0024E89457FF02C009D06894F9
:1009B00000F80BD010F80124089502D009D0089552
:1009C000509540954F5F5F4F0895E89417FF089545
:1009D000009510950F5F1F4F68940895352F242FB1
:1009E000E894452B11F468940895512F402F002767
:1009F000112780E1440F551F001F111F021B130B0D
:100A0000416018F4020F131F4E7F8A9599F70895DD
:100A10008F938D918823E9F711978F910895809195
:100A2000C00087FFFCCF8091C6000895A4EDB3E01D
:100A30008D91882311F00CD0FBCF08950E9467059B
:100A4000802D11F005D0FACF08958DE001D08AE015
:100A50000090C00005FEFCCF8093C600089531973A
:100A6000F1F70895689462F80895E89462F808959B
:100A7000EF93FF93EE27E82BE92B31F0E8E8F3E161
:100A80003197F1F70197D1F7FF91EF910895481A47
:100A9000590A0895481A8827580A08955A924A927E
:100AA000480E591E08955A924A92480E8827581E99
:100AB00008955A924A92480E8827581E88E348168D
:100AC00084E0580608F40895689462F80895C8957B
:100AD000319600200895000F111F221F331F089523
:100AE00000951095209530950F5F1F4F2F4F3F4F6A
:100AF0000895019110810EC00191119121913081D1
:100B00000BC00191108117FF05C03FEF2FEF04C00C
:100B1000008111272227332737FF03C0E1DF8DE251
:100B20008D93CF93DF93CF92DF92EF92AA24BB24D1
:100B3000CC24DD24EE2440E2CAE0DD2755E093E337
:100B40008881890F87FD9F7083FD907F891B899322
:100B50005A95A9F7C0DFAA1CBB1CCC1CDD1CEE1CDF
:100B60004A9551F7E894EFE0FF2782910ED0EB30E1
:100B7000E0F71EF068948A2D0CD088278D93EF90B3
:100B8000DF90CF90DF91CF910895982F829501D07B
:100B9000892F8F70805D26F0803309F40895689462
:100BA0008D93089581918D938823E1F7089568943A
:100BB00001C0E894AF93BF938D9116F0919103C05B
:100BC0000E946705902D891718F011F48823A1F76A
:100BD000BF91AF91089553746172746520696D205F
:100BE0004D6F6475733A2000496E2077656C6368B9
:100BF000656D204D6F64757320736F6C6C20676535
:100C0000737461727465742077657264656E3F00F9
:100C1000417573004E6F726D616C000054657374A2
:100C20000000556E62656B616E6E746572204D6F6B
:100C3000647573210000496E7075743A2000427526
:0A0C40007A7A65722120280029004D
:00000001FF
