:100000000C94340018950000189500001895000015
:10001000189500001895000018950000189500002C
:10002000189500001895000018950000189500001C
:10003000189500001895000018950000189500000C
:1000400018950000189500001895000018950000FC
:1000500018950000189500001895000018950000EC
:1000600018950000189500008FEF8DBFCCE9ECEEDD
:100070004E2E84E08EBFD4E0F3E05F2EA89584B7C7
:10008000082E877F84BF88E1992780936000909332
:100090006000EEEFF3E0A0E0B1E088278D933197A8
:1000A000E9F780E48093C40080E08093C50088E194
:1000B0008093C100662470E77AB97FE074B95A9AD8
:1000C00080E090E0A0E1B1E08D939C930E946C00F1
:1000D0000C946800F894FFCF8FE38093000186E0D2
:1000E000809301018BE5809302018FE480930301EB
:1000F00086E6809304018DE6809305018DE7809369
:10010000060187E2809307018FE7809308018FE65D
:100110008093090187E780930A018CE780930B01A4
:1001200089E380930C018EE580930D0189E780932C
:100130000E0181E780930F0108953FBEA881B98128
:10014000AD90BD90A0E0B1E0AA0DBB1D0C9140EFB9
:1001500004230BB95A9AA881B981AD90BD90A0E053
:10016000B1E0AA0DBB1D0C914FE0042305B9089521
:100170003197F1F70895689462F80895E89462F869
:020180000895E0
:00000001FF
